:100000000C9434000C943E000C943E000C943E0082
:100010000C943E000C943E000C943E000C943E0068
:100020000C943E000C943E000C943E000C943E0058
:100030000C943E000C943E000C943E000C943E0048
:100040000C943E000C943E000C943E000C943E0038
:100050000C943E000C943E000C943E000C943E0028
:100060000C943E000C943E0011241FBECFEFD8E04C
:10007000DEBFCDBF0E9440000C9471000C940000C4
:100080008AB18FEF8AB980E013C021E030E0082EFA
:1000900002C0220F331F0A94E2F72BB92FE736E292
:1000A00094E0215030409040E1F700C000008F5FA5
:1000B0008730A0F4EACF21E030E0082E02C0220F02
:1000C000331F0A94E2F72BB92FE736E294E0215070
:1000D00030409040E1F700C0000081508111EBCF2B
:0600E000E7CFF894FFCF0A
:00000001FF
