:100000000C9434000C943E000C943E000C943E0082
:100010000C943E000C943E000C943E000C943E0068
:100020000C943E000C943E000C943E000C943E0058
:100030000C943E000C943E000C943E000C943E0048
:100040000C943E000C943E000C943E000C943E0038
:100050000C943E000C943E000C943E000C943E0028
:100060000C943E000C943E0011241FBECFEFD8E04C
:10007000DEBFCDBF0E9440000C94D7000C9400005E
:100080008AB18FEF8AB920E015C03BB181E090E0E2
:10009000022E02C0880F991F0A94E2F7832B8BB9B6
:1000A0003FE786E294E0315080409040E1F700C0A5
:1000B00000002F5F283048F320E016C03BB181E0FC
:1000C00090E0022E02C0880F991F0A94E2F78095F3
:1000D00083238BB93FE786E294E031508040904023
:1000E000E1F700C000002F5F283040F32FE730EC2D
:1000F00084E1215030408040E1F700C0000027E05B
:1001000015C03BB181E090E0022E02C0880F991F1C
:100110000A94E2F7832B8BB99FE736E284E0915093
:1001200030408040E1F700C0000021502F3F49F7E8
:1001300027E015C03BB181E090E0022E02C0880F9D
:10014000991F0A94E2F783238BB99FE736E284E094
:10015000915030408040E1F700C0000021502F3F17
:1001600049F79FE720EC34E1915020403040E1F71F
:1001700000C0000090E00EC02BB181E082278BB957
:100180008FE726E234E0815020403040E1F700C0A4
:1001900000009F5F9B3480F31BB88FE796E224E05A
:1001A000815090402040E1F700C000006CCFF894EF
:0201B000FFCF7F
:00000001FF
